:10001E004D31004C37004C36004C35004D35004DFF
:10002E0034004D33004D32004832004831004D3718
:10003E00004D36004836004835004834004833003D
:10004E004D757369633A00436173746C6520496E34
:10005E0054686520536B790043616E6F6E00000427
:10006E0000040004160218021906180219041D04D1
:10007E00180C110211021606140216041904140C9F
:10008E0011041206110212041904110800021902B9
:10009E001902190218061302130418041808000492
:1000AE00160218021906180219041D04180C110262
:1000BE0011021606140216041904140C0F02110272
:1000CE0012041902180419061B021B021D02190A3A
:1000DE00190218021602160218041504160C19023B
:1000EE001B021D061B021D0420041B0C140214020D
:1000FE001906180219041D041D10160218021904FF
:10010E0018041B021B021906140A1E041D041D04EA
:10011E0019041D0C1D042208200420041D021B02BC
:10012E001908000219021B0419021B021B042004E9
:10013E001D0C1D04220820081D021B0219080002B6
:10014E0019021B0419021B061804160C0004FF00EA
:10015E00000020021D011E0120021D011E012001B2
:10016E0014011601180119011B011D011E011D02AA
:10017E0019011B011D0211011201140116011401B6
:10018E0012011401110112011401120216011401BF
:10019E00120211010F0111010F010D010F011101C9
:1001AE001201140116011202160114011602180191
:1001BE00190114011601180119011B011D011E015F
:1001CE0020011D0219011B011D021B0119011B013A
:1001DE00180119011B011D011B01190118011B0238
:1001EE001601140119020D010F0111011201110165
:1001FE000F0111011901180119012202190118012B
:10020E00160214011201140112011101120114013E
:10021E0016011801190122021901180119021801FB
:10022E001601180119011B011901180119011601F6
:10023E00180119081D021102120211020F021B02EF
:10024E001D021B02190211020D02160214021402E3
:10025E0012021402160216021802160214021402D8
:10026E0012021402160216021402160218021802C4
:10027E0016021802190219020F02190218021802A8
:10028E001902180216021602140216021802180299
:10029E001D021B02190219021B021E021D0211026F
:1002AE0014021D02190212021D021E021B0220025E
:1002BE001E022002190219011B011D021902180249
:1002CE0024010D011B021802190216011801190250
:1002DE001602180220011E011D021B0219021E0128
:1002EE001D011B021E021D0219011B011D0214021B
:1002FE00120216011401120211020F021401120150
:10030E0011020F0211021901180119021102140231
:10031E00160118011B021802160219011B011D02FB
:10032E0019021D021D011B011902180216021602E6
:10033E0014011602180219011D011B0119021D02DA
:10034E001E02190118011602160212020F021402E1
:10035E0014022012190E20041E0820081E0419066D
:10036E001902190418021908190218081608140897
:10037E000D060F02110816080F081B021D061D029E
:10038E001D021E021D021B021904190219021B0274
:10039E001902180416081908190218021602180272
:1003AE001406140214061402140216021402120287
:1003BE0011061D021D021E021D021B021904180445
:1003CE00160218021406140212041904180819024F
:1003DE0019081808160814021404120811040F083C
:1003EE0000020F0211041D081B0419041908180439
:1003FE001608190414041608140814081406120218
:10040E001D081D061B021918180819040D040C04EA
:10041E00180416041604140420041E040D041104FA
:10042E001D041B0416040F041B0419040D040C04F4
:10043E00180416041604140420041E040D041104DA
:0A044E001D041E0820081910FF000D
:10085700204A0C0000F88CF8F3F95BF9B8FA15FA9E
:1008670067FAB9FB04FB4BFB90FBCFFC10FC44FC85
:1008770079FCACFCDCFD09FD34FD5CFD82FDA6FDC9
:10088700C8FDE8FE06FE22FE3DFE56FE6EFE85FE14
:0D0897009AFEAEFEC1FED3FEE4FEF4FF03A8
:100458007590FF120AF0E50860030205977590F0A1
:10046800E59054F064F070030205867F0A7E00125E
:100478000AC7E59054F0FF64F07003020586759092
:100488000FE590540F4207D28CEF12062C057277B5
:1004980005467B051A7D04ED7E0567B7053BBB0560
:1004A8000FBD04E1BE055CD70530DB0504DD04D5CE
:1004B800DE0551E70525EB04F9ED04C9EE0000055A
:1004C80084750A0D7BFF7A00791E02057B750A0C7C
:1004D8007BFF7A00792102057B750A0A7BFF7A0087
:1004E800792402057B750A087BFF7A0079270205C3
:1004F8007B750A147BFF7A00792A8077750A127B4C
:10050800FF7A00792D806C750A117BFF7A007930AB
:100518008061750A0F7BFF7A0079338056750A1B54
:100528007BFF7A007936804B750A197BFF7A007950
:10053800398040750A187BFF7A00793C8035750A46
:10054800167BFF7A00793F802A750A227BFF7A00A2
:100558007942801F750A207BFF7A007945801475DF
:100568000A1E7BFF7A0079488009750A1D7BFF7A8D
:1005780000794B7D017F01120A688002C28CAF901E
:0F058800EF64F0600302045EC28CD2B702045E1F
:010597002241
:03000B000209BA2D
:1009BA00C0E0C0D075D000C000C004C005C007E5C3
:1009CA000A25E0240CF8E6FC08E6FDECF58CAF05F8
:1009DA008F8AB2B7D007D005D004D000D0D0D0E0EB
:0109EA0032DA
:1006E800120B007BFF7A00794E7D017F01120A68A8
:1006F8007BFF7A0079557D017F02120A68E508645C
:1007080001706AE50925E0246CF582E43400F5837C
:10071800E493FFF4602A8F0BE50925E0246DF58248
:10072800E43400F583E49375F07DA4FFAEF0120A7B
:10073800C70509C28E7F057E00120AC7D28E80BD0A
:10074800C28E7F0112000E7FD07E07120AC77BFF80
:100758007A00794E7D017F01120A687BFF7A007961
:10076800557D017F02120A68E4F5098090C28E2245
:10065200120B007BFF7A00794E7D017F01120A683E
:100662007BFF7A0079667D017F02120A68E50864E1
:1006720002707075F002E509A42460F582E5F03499
:1006820001F583E493FFF4602D8F0B75F002E50909
:10069200A42461F582E5F03401F583E49375F07DDD
:1006A200A4FFAEF0120AC70509C28E7F057E0012B2
:1006B2000AC7D28E80B7C28E7F0112000E7FD07E13
:1006C20007120AC77BFF7A00794E7D017F01120A69
:1006D200687BFF7A0079667D017F02120A68E4F581
:0606E20009808AC28E228D
:03001B0002093A9D
:10093A00C0E0C0D075D000C000C004C005C006C069
:10094A0007E50B25E0240CF8E6FE08E64E6015E5FF
:10095A000B25E0240CF8E6FC08E6FDECF58DAF0566
:10096A008F8BB2B7D007D006D005D004D000D0D034
:03097A00D0E03298
:03000300020804EC
:10080400C0E0C0F0C083C082C0D075D000C000C0BA
:1008140001C002C003C004C005C006C0077F0A7E31
:1008240000120AC720B211C28CC28E0508120ADC5B
:10083400E50864037002F508D007D006D005D0049B
:10084400D003D002D001D000D0D0D082D083D0F059
:03085400D0E032BF
:100A1C00120ADCE4F508120B29E5086401700512D2
:100A2C0006E880F5E5086402700512065280EAE5D6
:080A3C000870E612045880E185
:100AF000438901758CD8758AF0D2A9D2AFC28C22F5
:100B0000438910758DD8758BF0D2ABD2AFC28E22CF
:070B2900D288D2A8D2AF224E
:070B3000D28AD2AAD2AF2243
:100AC700EF1FAC0670011E4C600A7D027CEFDCFE56
:040AD700DDFC80ECD6
:010ADB0022F8
:060B1000C2A58F80D2A6F1
:080B16007F027EEFDEFEDFFC32
:010B1E0022B4
:0A000E00C2A4120B10C2A6020B16CA
:100A8B00CFCDCFCECCCE1205D77C007D0A1205D7A9
:040A9B00ED2430FF17
:0A0A9F00D2A4120B10C2A6020B161F
:100AA900AE07EEFB7A0064017004ED148009EB6473
:0E0AB900024A7009ED243F4480FF12000E2215
:100ADC007F3812000E7F0C12000E7F0612000E7F64
:040AEC000102000EF5
:0A0B1F00AC03120AA9AF04020A9FFA
:060A68008B708A71897297
:100A6E00120AA9E4FDAB70AA71A9728D827583007A
:0C0A7E00120598FF6006120A9F0D80E927
:010A8A002249
:0A09EB00EF24FFFDEE34FFFC7F0A4D
:0809F5008E6C8F6D8C6E8D6F0E
:1009FD007F017E00E4FBEBC3956FE56E6480F874B8
:0E0A0D008098500AAC6CAD6D1205C50B80E8E8
:010A1B0022B8
:040A44008A5F8B60DA
:100A4800120AA9AA61EAFF7E00D3940074809480F8
:0F0A5800400D1209EBAC5FAD60120A8B1A80E6FD
:010A6700226C
:0408F0008B828A83EA
:1008F400120AA9C3E58364809480400D7F2B120AF9
:100904009F85835B85825C80107F2D120A9FC3E4E0
:100914009582F55CE49583F55BAA5AEAFF7E00D3E1
:10092400940074809480400D1209EBAC5BAD5C12B2
:050934000A8B1A80E6A9
:01093900229B
:0408A5008A648B6571
:1008A900120AA9AA66EAD39400748094804037EAB0
:1008B90024FFFDE434FFFC7F107E001209F5AC64CF
:1008C900AD65CFCDCFCECCCE1205D7EF540FFEC339
:1008D900940A74809480EE5004243080022437FFF7
:0608E900120A9F1A80BFF5
:0108EF0022E6
:04097D008A698B6A8E
:10098100120AA9AA6BEAFF7E00D3940074809480B6
:100991004026EF24FFFDEE34FFFC7F021209F5AC87
:1009A10069AD6ACFCDCFCECCCE1205D7EF5401249D
:0809B10030FF120A9F1A80CDED
:0109B900221B
:030000000207787C
:0C077800787FE4F6D8FD7581720207BF9F
:10059800BB010CE58229F582E5833AF583E0225018
:1005A80006E92582F8E622BBFE06E92582F8E22262
:0D05B800E58229F582E5833AF583E493227C
:1005C500EF8DF0A4A8F0CF8CF0A428CE8DF0A42E4A
:0205D500FE2204
:1005D700BC000BBE0029EF8DF084FFADF022E4CC08
:1005E700F875F008EF2FFFEE33FEEC33FCEE9DECD1
:1005F700984005FCEE9DFE0FD5F0E9E4CEFD22ED17
:10060700F8F5F0EE8420D21CFEADF075F008EF2F60
:10061700FFED33FD4007985006D5F0F222C398FD51
:050627000FD5F0EA22EE
:10062C00D083D082F8E4937012740193700DA3A35D
:10063C0093F8740193F5828883E473740293686071
:06064C00EFA3A3A380DF71
:10078400020A1CE493A3F8E493A34003F68001F265
:1007940008DFF48029E493A3F85407240CC8C33376
:1007A400C4540F4420C8834004F456800146F6DF45
:1007B400E4800B0102040810204080900857E47E76
:1007C400019360BCA3FF543F30E509541FFEE4933A
:1007D400A360010ECF54C025E060A840B8E493A301
:1007E400FAE493A3F8E493A3C8C582C8CAC583CA2C
:1007F400F0A3C8C582C8CAC583CADFE9DEE780BEE4
:0108A4000053
:00000001FF
